{
  "contracts/BudgetEscrow.sol": {
    "BudgetEscrow": {
      "abi": [
        {
          "inputs": [],
          "stateMutability": "nonpayable",
          "type": "constructor"
        },
        {
          "anonymous": false,
          "inputs": [
            {
              "indexed": false,
              "internalType": "uint256",
              "name": "id",
              "type": "uint256"
            },
            {
              "indexed": false,
              "internalType": "string",
              "name": "description",
              "type": "string"
            },
            {
              "indexed": false,
              "internalType": "uint256",
              "name": "amount",
              "type": "uint256"
            }
          ],
          "name": "BudgetCreated",
          "type": "event"
        },
        {
          "anonymous": false,
          "inputs": [
            {
              "indexed": false,
              "internalType": "uint256",
              "name": "id",
              "type": "uint256"
            },
            {
              "indexed": false,
              "internalType": "uint256",
              "name": "amount",
              "type": "uint256"
            }
          ],
          "name": "FundsReleased",
          "type": "event"
        },
        {
          "anonymous": false,
          "inputs": [
            {
              "indexed": false,
              "internalType": "uint256",
              "name": "id",
              "type": "uint256"
            },
            {
              "indexed": false,
              "internalType": "uint256",
              "name": "disputeEndTime",
              "type": "uint256"
            }
          ],
          "name": "ItemVerified",
          "type": "event"
        },
        {
          "anonymous": false,
          "inputs": [
            {
              "indexed": false,
              "internalType": "uint256",
              "name": "id",
              "type": "uint256"
            },
            {
              "indexed": false,
              "internalType": "string",
              "name": "url",
              "type": "string"
            }
          ],
          "name": "ProofUploaded",
          "type": "event"
        },
        {
          "inputs": [
            {
              "internalType": "uint256",
              "name": "",
              "type": "uint256"
            }
          ],
          "name": "budgetItems",
          "outputs": [
            {
              "internalType": "uint256",
              "name": "id",
              "type": "uint256"
            },
            {
              "internalType": "string",
              "name": "description",
              "type": "string"
            },
            {
              "internalType": "uint256",
              "name": "amount",
              "type": "uint256"
            },
            {
              "internalType": "address payable",
              "name": "recipient",
              "type": "address"
            },
            {
              "internalType": "string",
              "name": "proofDocumentUrl",
              "type": "string"
            },
            {
              "internalType": "bool",
              "name": "isVerified",
              "type": "bool"
            },
            {
              "internalType": "uint256",
              "name": "disputeEndTime",
              "type": "uint256"
            },
            {
              "internalType": "bool",
              "name": "isPaid",
              "type": "bool"
            }
          ],
          "stateMutability": "view",
          "type": "function"
        },
        {
          "inputs": [
            {
              "internalType": "uint256",
              "name": "_id",
              "type": "uint256"
            }
          ],
          "name": "claimFunds",
          "outputs": [],
          "stateMutability": "nonpayable",
          "type": "function"
        },
        {
          "inputs": [
            {
              "internalType": "string",
              "name": "_description",
              "type": "string"
            },
            {
              "internalType": "address payable",
              "name": "_recipient",
              "type": "address"
            }
          ],
          "name": "createBudgetItem",
          "outputs": [],
          "stateMutability": "payable",
          "type": "function"
        },
        {
          "inputs": [],
          "name": "inspector",
          "outputs": [
            {
              "internalType": "address",
              "name": "",
              "type": "address"
            }
          ],
          "stateMutability": "view",
          "type": "function"
        },
        {
          "inputs": [],
          "name": "itemCount",
          "outputs": [
            {
              "internalType": "uint256",
              "name": "",
              "type": "uint256"
            }
          ],
          "stateMutability": "view",
          "type": "function"
        },
        {
          "inputs": [
            {
              "internalType": "uint256",
              "name": "_id",
              "type": "uint256"
            },
            {
              "internalType": "string",
              "name": "_url",
              "type": "string"
            }
          ],
          "name": "uploadProof",
          "outputs": [],
          "stateMutability": "nonpayable",
          "type": "function"
        },
        {
          "inputs": [
            {
              "internalType": "uint256",
              "name": "_id",
              "type": "uint256"
            }
          ],
          "name": "verifyProof",
          "outputs": [],
          "stateMutability": "nonpayable",
          "type": "function"
        }
      ],
      "evm": {
        "bytecode": {
          "linkReferences": {},
          "object": "6080604052348015600f57600080fd5b5033600260006101000a81548173ffffffffffffffffffffffffffffffffffffffff021916908373ffffffffffffffffffffffffffffffffffffffff160217905550611517806100606000396000f3fe6080604052600436106100705760003560e01c80636bfb0d011161004e5780636bfb0d01146100fe5780638b6958ff14610129578063ed2cee9e14610152578063fc0990fe1461017d57610070565b80631b55e33814610075578063594584901461009e5780635d3efb62146100e2575b600080fd5b34801561008157600080fd5b5061009c600480360381019061009791906109a9565b6101a6565b005b3480156100aa57600080fd5b506100c560048036038101906100c091906109a9565b6103e5565b6040516100d9989796959493929190610ad1565b60405180910390f35b6100fc60048036038101906100f79190610cbe565b610577565b005b34801561010a57600080fd5b50610113610720565b6040516101209190610d1a565b60405180910390f35b34801561013557600080fd5b50610150600480360381019061014b91906109a9565b610726565b005b34801561015e57600080fd5b50610167610841565b6040516101749190610d56565b60405180910390f35b34801561018957600080fd5b506101a4600480360381019061019f9190610d71565b610867565b005b60008060008381526020019081526020016000209050600115158160050160009054906101000a900460ff16151514610214576040517f08c379a000000000000000000000000000000000000000000000000000000000815260040161020b90610e19565b60405180910390fd5b8060060154421161025a576040517f08c379a000000000000000000000000000000000000000000000000000000000815260040161025190610e85565b60405180910390fd5b600015158160070160009054906101000a900460ff161515146102b2576040517f08c379a00000000000000000000000000000000000000000000000000000000081526004016102a990610ef1565b60405180910390fd5b60018160070160006101000a81548160ff02191690831515021790555060008160030160009054906101000a900473ffffffffffffffffffffffffffffffffffffffff1673ffffffffffffffffffffffffffffffffffffffff16826002015460405161031d90610f42565b60006040518083038185875af1925050503d806000811461035a576040519150601f19603f3d011682016040523d82523d6000602084013e61035f565b606091505b50509050806103a3576040517f08c379a000000000000000000000000000000000000000000000000000000000815260040161039a90610fa3565b60405180910390fd5b7f80230996023d69b50793fa73f1919127c9d8e741d3989743c479169f22e7a2888383600201546040516103d8929190610fc3565b60405180910390a1505050565b600060205280600052604060002060009150905080600001549080600101805461040e9061101b565b80601f016020809104026020016040519081016040528092919081815260200182805461043a9061101b565b80156104875780601f1061045c57610100808354040283529160200191610487565b820191906000526020600020905b81548152906001019060200180831161046a57829003601f168201915b5050505050908060020154908060030160009054906101000a900473ffffffffffffffffffffffffffffffffffffffff16908060040180546104c89061101b565b80601f01602080910402602001604051908101604052809291908181526020018280546104f49061101b565b80156105415780601f1061051657610100808354040283529160200191610541565b820191906000526020600020905b81548152906001019060200180831161052457829003601f168201915b5050505050908060050160009054906101000a900460ff16908060060154908060070160009054906101000a900460ff16905088565b6001600081548092919061058a9061107b565b919050555060405180610100016040528060015481526020018381526020013481526020018273ffffffffffffffffffffffffffffffffffffffff1681526020016040518060200160405280600081525081526020016000151581526020016000815260200160001515815250600080600154815260200190815260200160002060008201518160000155602082015181600101908161062a919061126f565b506040820151816002015560608201518160030160006101000a81548173ffffffffffffffffffffffffffffffffffffffff021916908373ffffffffffffffffffffffffffffffffffffffff1602179055506080820151816004019081610691919061126f565b5060a08201518160050160006101000a81548160ff02191690831515021790555060c0820151816006015560e08201518160070160006101000a81548160ff0219169083151502179055509050507f4fc2983b7139ceaab88f43e9ce49b23717555d62f17c6ebb621928ea846ef8a6600154833460405161071493929190611341565b60405180910390a15050565b60015481565b600260009054906101000a900473ffffffffffffffffffffffffffffffffffffffff1673ffffffffffffffffffffffffffffffffffffffff163373ffffffffffffffffffffffffffffffffffffffff16146107b6576040517f08c379a00000000000000000000000000000000000000000000000000000000081526004016107ad906113cb565b60405180910390fd5b6000806000838152602001908152602001600020905060018160050160006101000a81548160ff02191690831515021790555062015180426107f891906113eb565b81600601819055507f6581a36701680386266c27c579c1f850c542b535d40d8446bedfe86e29597ab4828260060154604051610835929190610fc3565b60405180910390a15050565b600260009054906101000a900473ffffffffffffffffffffffffffffffffffffffff1681565b600080600084815260200190815260200160002090508060030160009054906101000a900473ffffffffffffffffffffffffffffffffffffffff1673ffffffffffffffffffffffffffffffffffffffff163373ffffffffffffffffffffffffffffffffffffffff161461090f576040517f08c379a000000000000000000000000000000000000000000000000000000000815260040161090690611491565b60405180910390fd5b81816004019081610920919061126f565b507fe8fb48cf9c969f4b8933c271df021ee973ddc3f9c7b691bdc3dd074081b339b283836040516109529291906114b1565b60405180910390a1505050565b6000604051905090565b600080fd5b600080fd5b6000819050919050565b61098681610973565b811461099157600080fd5b50565b6000813590506109a38161097d565b92915050565b6000602082840312156109bf576109be610969565b5b60006109cd84828501610994565b91505092915050565b6109df81610973565b82525050565b600081519050919050565b600082825260208201905092915050565b60005b83811015610a1f578082015181840152602081019050610a04565b60008484015250505050565b6000601f19601f8301169050919050565b6000610a47826109e5565b610a5181856109f0565b9350610a61818560208601610a01565b610a6a81610a2b565b840191505092915050565b600073ffffffffffffffffffffffffffffffffffffffff82169050919050565b6000610aa082610a75565b9050919050565b610ab081610a95565b82525050565b60008115159050919050565b610acb81610ab6565b82525050565b600061010082019050610ae7600083018b6109d6565b8181036020830152610af9818a610a3c565b9050610b0860408301896109d6565b610b156060830188610aa7565b8181036080830152610b278187610a3c565b9050610b3660a0830186610ac2565b610b4360c08301856109d6565b610b5060e0830184610ac2565b9998505050505050505050565b600080fd5b600080fd5b7f4e487b7100000000000000000000000000000000000000000000000000000000600052604160045260246000fd5b610b9f82610a2b565b810181811067ffffffffffffffff82111715610bbe57610bbd610b67565b5b80604052505050565b6000610bd161095f565b9050610bdd8282610b96565b919050565b600067ffffffffffffffff821115610bfd57610bfc610b67565b5b610c0682610a2b565b9050602081019050919050565b82818337600083830152505050565b6000610c35610c3084610be2565b610bc7565b905082815260208101848484011115610c5157610c50610b62565b5b610c5c848285610c13565b509392505050565b600082601f830112610c7957610c78610b5d565b5b8135610c89848260208601610c22565b91505092915050565b610c9b81610a95565b8114610ca657600080fd5b50565b600081359050610cb881610c92565b92915050565b60008060408385031215610cd557610cd4610969565b5b600083013567ffffffffffffffff811115610cf357610cf261096e565b5b610cff85828601610c64565b9250506020610d1085828601610ca9565b9150509250929050565b6000602082019050610d2f60008301846109d6565b92915050565b6000610d4082610a75565b9050919050565b610d5081610d35565b82525050565b6000602082019050610d6b6000830184610d47565b92915050565b60008060408385031215610d8857610d87610969565b5b6000610d9685828601610994565b925050602083013567ffffffffffffffff811115610db757610db661096e565b5b610dc385828601610c64565b9150509250929050565b7f4974656d206e6f74207665726966696564207965740000000000000000000000600082015250565b6000610e036015836109f0565b9150610e0e82610dcd565b602082019050919050565b60006020820190508181036000830152610e3281610df6565b9050919050565b7f4469737075746520706572696f64206e6f74206f766572000000000000000000600082015250565b6000610e6f6017836109f0565b9150610e7a82610e39565b602082019050919050565b60006020820190508181036000830152610e9e81610e62565b9050919050565b7f416c726561647920706169640000000000000000000000000000000000000000600082015250565b6000610edb600c836109f0565b9150610ee682610ea5565b602082019050919050565b60006020820190508181036000830152610f0a81610ece565b9050919050565b600081905092915050565b50565b6000610f2c600083610f11565b9150610f3782610f1c565b600082019050919050565b6000610f4d82610f1f565b9150819050919050565b7f5472616e73666572206661696c65640000000000000000000000000000000000600082015250565b6000610f8d600f836109f0565b9150610f9882610f57565b602082019050919050565b60006020820190508181036000830152610fbc81610f80565b9050919050565b6000604082019050610fd860008301856109d6565b610fe560208301846109d6565b9392505050565b7f4e487b7100000000000000000000000000000000000000000000000000000000600052602260045260246000fd5b6000600282049050600182168061103357607f821691505b60208210810361104657611045610fec565b5b50919050565b7f4e487b7100000000000000000000000000000000000000000000000000000000600052601160045260246000fd5b600061108682610973565b91507fffffffffffffffffffffffffffffffffffffffffffffffffffffffffffffffff82036110b8576110b761104c565b5b600182019050919050565b60008190508160005260206000209050919050565b60006020601f8301049050919050565b600082821b905092915050565b6000600883026111257fffffffffffffffffffffffffffffffffffffffffffffffffffffffffffffffff826110e8565b61112f86836110e8565b95508019841693508086168417925050509392505050565b6000819050919050565b600061116c61116761116284610973565b611147565b610973565b9050919050565b6000819050919050565b61118683611151565b61119a61119282611173565b8484546110f5565b825550505050565b600090565b6111af6111a2565b6111ba81848461117d565b505050565b5b818110156111de576111d36000826111a7565b6001810190506111c0565b5050565b601f821115611223576111f4816110c3565b6111fd846110d8565b8101602085101561120c578190505b611220611218856110d8565b8301826111bf565b50505b505050565b600082821c905092915050565b600061124660001984600802611228565b1980831691505092915050565b600061125f8383611235565b9150826002028217905092915050565b611278826109e5565b67ffffffffffffffff81111561129157611290610b67565b5b61129b825461101b565b6112a68282856111e2565b600060209050601f8311600181146112d957600084156112c7578287015190505b6112d18582611253565b865550611339565b601f1984166112e7866110c3565b60005b8281101561130f578489015182556001820191506020850194506020810190506112ea565b8683101561132c5784890151611328601f891682611235565b8355505b6001600288020188555050505b505050505050565b600060608201905061135660008301866109d6565b81810360208301526113688185610a3c565b905061137760408301846109d6565b949350505050565b7f4f6e6c792074686520496e73706563746f722063616e20766572696679000000600082015250565b60006113b5601d836109f0565b91506113c08261137f565b602082019050919050565b600060208201905081810360008301526113e4816113a8565b9050919050565b60006113f682610973565b915061140183610973565b92508282019050808211156114195761141861104c565b5b92915050565b7f4f6e6c792074686520726563697069656e742063616e2075706c6f616420707260008201527f6f6f660000000000000000000000000000000000000000000000000000000000602082015250565b600061147b6023836109f0565b91506114868261141f565b604082019050919050565b600060208201905081810360008301526114aa8161146e565b9050919050565b60006040820190506114c660008301856109d6565b81810360208301526114d88184610a3c565b9050939250505056fea2646970667358221220f41913ffab802fbd9205c7aa97c4ccbacafff39f1160282c51e238a5219ba48f64736f6c634300081c0033",
          "opcodes": "PUSH1 0x80 PUSH1 0x40 MSTORE CALLVALUE DUP1 ISZERO PUSH1 0xF JUMPI PUSH1 0x0 DUP1 REVERT JUMPDEST POP CALLER PUSH1 0x2 PUSH1 0x0 PUSH2 0x100 EXP DUP2 SLOAD DUP2 PUSH20 0xFFFFFFFFFFFFFFFFFFFFFFFFFFFFFFFFFFFFFFFF MUL NOT AND SWAP1 DUP4 PUSH20 0xFFFFFFFFFFFFFFFFFFFFFFFFFFFFFFFFFFFFFFFF AND MUL OR SWAP1 SSTORE POP PUSH2 0x1517 DUP1 PUSH2 0x60 PUSH1 0x0 CODECOPY PUSH1 0x0 RETURN INVALID PUSH1 0x80 PUSH1 0x40 MSTORE PUSH1 0x4 CALLDATASIZE LT PUSH2 0x70 JUMPI PUSH1 0x0 CALLDATALOAD PUSH1 0xE0 SHR DUP1 PUSH4 0x6BFB0D01 GT PUSH2 0x4E JUMPI DUP1 PUSH4 0x6BFB0D01 EQ PUSH2 0xFE JUMPI DUP1 PUSH4 0x8B6958FF EQ PUSH2 0x129 JUMPI DUP1 PUSH4 0xED2CEE9E EQ PUSH2 0x152 JUMPI DUP1 PUSH4 0xFC0990FE EQ PUSH2 0x17D JUMPI PUSH2 0x70 JUMP JUMPDEST DUP1 PUSH4 0x1B55E338 EQ PUSH2 0x75 JUMPI DUP1 PUSH4 0x59458490 EQ PUSH2 0x9E JUMPI DUP1 PUSH4 0x5D3EFB62 EQ PUSH2 0xE2 JUMPI JUMPDEST PUSH1 0x0 DUP1 REVERT JUMPDEST CALLVALUE DUP1 ISZERO PUSH2 0x81 JUMPI PUSH1 0x0 DUP1 REVERT JUMPDEST POP PUSH2 0x9C PUSH1 0x4 DUP1 CALLDATASIZE SUB DUP2 ADD SWAP1 PUSH2 0x97 SWAP2 SWAP1 PUSH2 0x9A9 JUMP JUMPDEST PUSH2 0x1A6 JUMP JUMPDEST STOP JUMPDEST CALLVALUE DUP1 ISZERO PUSH2 0xAA JUMPI PUSH1 0x0 DUP1 REVERT JUMPDEST POP PUSH2 0xC5 PUSH1 0x4 DUP1 CALLDATASIZE SUB DUP2 ADD SWAP1 PUSH2 0xC0 SWAP2 SWAP1 PUSH2 0x9A9 JUMP JUMPDEST PUSH2 0x3E5 JUMP JUMPDEST PUSH1 0x40 MLOAD PUSH2 0xD9 SWAP9 SWAP8 SWAP7 SWAP6 SWAP5 SWAP4 SWAP3 SWAP2 SWAP1 PUSH2 0xAD1 JUMP JUMPDEST PUSH1 0x40 MLOAD DUP1 SWAP2 SUB SWAP1 RETURN JUMPDEST PUSH2 0xFC PUSH1 0x4 DUP1 CALLDATASIZE SUB DUP2 ADD SWAP1 PUSH2 0xF7 SWAP2 SWAP1 PUSH2 0xCBE JUMP JUMPDEST PUSH2 0x577 JUMP JUMPDEST STOP JUMPDEST CALLVALUE DUP1 ISZERO PUSH2 0x10A JUMPI PUSH1 0x0 DUP1 REVERT JUMPDEST POP PUSH2 0x113 PUSH2 0x720 JUMP JUMPDEST PUSH1 0x40 MLOAD PUSH2 0x120 SWAP2 SWAP1 PUSH2 0xD1A JUMP JUMPDEST PUSH1 0x40 MLOAD DUP1 SWAP2 SUB SWAP1 RETURN JUMPDEST CALLVALUE DUP1 ISZERO PUSH2 0x135 JUMPI PUSH1 0x0 DUP1 REVERT JUMPDEST POP PUSH2 0x150 PUSH1 0x4 DUP1 CALLDATASIZE SUB DUP2 ADD SWAP1 PUSH2 0x14B SWAP2 SWAP1 PUSH2 0x9A9 JUMP JUMPDEST PUSH2 0x726 JUMP JUMPDEST STOP JUMPDEST CALLVALUE DUP1 ISZERO PUSH2 0x15E JUMPI PUSH1 0x0 DUP1 REVERT JUMPDEST POP PUSH2 0x167 PUSH2 0x841 JUMP JUMPDEST PUSH1 0x40 MLOAD PUSH2 0x174 SWAP2 SWAP1 PUSH2 0xD56 JUMP JUMPDEST PUSH1 0x40 MLOAD DUP1 SWAP2 SUB SWAP1 RETURN JUMPDEST CALLVALUE DUP1 ISZERO PUSH2 0x189 JUMPI PUSH1 0x0 DUP1 REVERT JUMPDEST POP PUSH2 0x1A4 PUSH1 0x4 DUP1 CALLDATASIZE SUB DUP2 ADD SWAP1 PUSH2 0x19F SWAP2 SWAP1 PUSH2 0xD71 JUMP JUMPDEST PUSH2 0x867 JUMP JUMPDEST STOP JUMPDEST PUSH1 0x0 DUP1 PUSH1 0x0 DUP4 DUP2 MSTORE PUSH1 0x20 ADD SWAP1 DUP2 MSTORE PUSH1 0x20 ADD PUSH1 0x0 KECCAK256 SWAP1 POP PUSH1 0x1 ISZERO ISZERO DUP2 PUSH1 0x5 ADD PUSH1 0x0 SWAP1 SLOAD SWAP1 PUSH2 0x100 EXP SWAP1 DIV PUSH1 0xFF AND ISZERO ISZERO EQ PUSH2 0x214 JUMPI PUSH1 0x40 MLOAD PUSH32 0x8C379A000000000000000000000000000000000000000000000000000000000 DUP2 MSTORE PUSH1 0x4 ADD PUSH2 0x20B SWAP1 PUSH2 0xE19 JUMP JUMPDEST PUSH1 0x40 MLOAD DUP1 SWAP2 SUB SWAP1 REVERT JUMPDEST DUP1 PUSH1 0x6 ADD SLOAD TIMESTAMP GT PUSH2 0x25A JUMPI PUSH1 0x40 MLOAD PUSH32 0x8C379A000000000000000000000000000000000000000000000000000000000 DUP2 MSTORE PUSH1 0x4 ADD PUSH2 0x251 SWAP1 PUSH2 0xE85 JUMP JUMPDEST PUSH1 0x40 MLOAD DUP1 SWAP2 SUB SWAP1 REVERT JUMPDEST PUSH1 0x0 ISZERO ISZERO DUP2 PUSH1 0x7 ADD PUSH1 0x0 SWAP1 SLOAD SWAP1 PUSH2 0x100 EXP SWAP1 DIV PUSH1 0xFF AND ISZERO ISZERO EQ PUSH2 0x2B2 JUMPI PUSH1 0x40 MLOAD PUSH32 0x8C379A000000000000000000000000000000000000000000000000000000000 DUP2 MSTORE PUSH1 0x4 ADD PUSH2 0x2A9 SWAP1 PUSH2 0xEF1 JUMP JUMPDEST PUSH1 0x40 MLOAD DUP1 SWAP2 SUB SWAP1 REVERT JUMPDEST PUSH1 0x1 DUP2 PUSH1 0x7 ADD PUSH1 0x0 PUSH2 0x100 EXP DUP2 SLOAD DUP2 PUSH1 0xFF MUL NOT AND SWAP1 DUP4 ISZERO ISZERO MUL OR SWAP1 SSTORE POP PUSH1 0x0 DUP2 PUSH1 0x3 ADD PUSH1 0x0 SWAP1 SLOAD SWAP1 PUSH2 0x100 EXP SWAP1 DIV PUSH20 0xFFFFFFFFFFFFFFFFFFFFFFFFFFFFFFFFFFFFFFFF AND PUSH20 0xFFFFFFFFFFFFFFFFFFFFFFFFFFFFFFFFFFFFFFFF AND DUP3 PUSH1 0x2 ADD SLOAD PUSH1 0x40 MLOAD PUSH2 0x31D SWAP1 PUSH2 0xF42 JUMP JUMPDEST PUSH1 0x0 PUSH1 0x40 MLOAD DUP1 DUP4 SUB DUP2 DUP6 DUP8 GAS CALL SWAP3 POP POP POP RETURNDATASIZE DUP1 PUSH1 0x0 DUP2 EQ PUSH2 0x35A JUMPI PUSH1 0x40 MLOAD SWAP2 POP PUSH1 0x1F NOT PUSH1 0x3F RETURNDATASIZE ADD AND DUP3 ADD PUSH1 0x40 MSTORE RETURNDATASIZE DUP3 MSTORE RETURNDATASIZE PUSH1 0x0 PUSH1 0x20 DUP5 ADD RETURNDATACOPY PUSH2 0x35F JUMP JUMPDEST PUSH1 0x60 SWAP2 POP JUMPDEST POP POP SWAP1 POP DUP1 PUSH2 0x3A3 JUMPI PUSH1 0x40 MLOAD PUSH32 0x8C379A000000000000000000000000000000000000000000000000000000000 DUP2 MSTORE PUSH1 0x4 ADD PUSH2 0x39A SWAP1 PUSH2 0xFA3 JUMP JUMPDEST PUSH1 0x40 MLOAD DUP1 SWAP2 SUB SWAP1 REVERT JUMPDEST PUSH32 0x80230996023D69B50793FA73F1919127C9D8E741D3989743C479169F22E7A288 DUP4 DUP4 PUSH1 0x2 ADD SLOAD PUSH1 0x40 MLOAD PUSH2 0x3D8 SWAP3 SWAP2 SWAP1 PUSH2 0xFC3 JUMP JUMPDEST PUSH1 0x40 MLOAD DUP1 SWAP2 SUB SWAP1 LOG1 POP POP POP JUMP JUMPDEST PUSH1 0x0 PUSH1 0x20 MSTORE DUP1 PUSH1 0x0 MSTORE PUSH1 0x40 PUSH1 0x0 KECCAK256 PUSH1 0x0 SWAP2 POP SWAP1 POP DUP1 PUSH1 0x0 ADD SLOAD SWAP1 DUP1 PUSH1 0x1 ADD DUP1 SLOAD PUSH2 0x40E SWAP1 PUSH2 0x101B JUMP JUMPDEST DUP1 PUSH1 0x1F ADD PUSH1 0x20 DUP1 SWAP2 DIV MUL PUSH1 0x20 ADD PUSH1 0x40 MLOAD SWAP1 DUP2 ADD PUSH1 0x40 MSTORE DUP1 SWAP3 SWAP2 SWAP1 DUP2 DUP2 MSTORE PUSH1 0x20 ADD DUP3 DUP1 SLOAD PUSH2 0x43A SWAP1 PUSH2 0x101B JUMP JUMPDEST DUP1 ISZERO PUSH2 0x487 JUMPI DUP1 PUSH1 0x1F LT PUSH2 0x45C JUMPI PUSH2 0x100 DUP1 DUP4 SLOAD DIV MUL DUP4 MSTORE SWAP2 PUSH1 0x20 ADD SWAP2 PUSH2 0x487 JUMP JUMPDEST DUP3 ADD SWAP2 SWAP1 PUSH1 0x0 MSTORE PUSH1 0x20 PUSH1 0x0 KECCAK256 SWAP1 JUMPDEST DUP2 SLOAD DUP2 MSTORE SWAP1 PUSH1 0x1 ADD SWAP1 PUSH1 0x20 ADD DUP1 DUP4 GT PUSH2 0x46A JUMPI DUP3 SWAP1 SUB PUSH1 0x1F AND DUP3 ADD SWAP2 JUMPDEST POP POP POP POP POP SWAP1 DUP1 PUSH1 0x2 ADD SLOAD SWAP1 DUP1 PUSH1 0x3 ADD PUSH1 0x0 SWAP1 SLOAD SWAP1 PUSH2 0x100 EXP SWAP1 DIV PUSH20 0xFFFFFFFFFFFFFFFFFFFFFFFFFFFFFFFFFFFFFFFF AND SWAP1 DUP1 PUSH1 0x4 ADD DUP1 SLOAD PUSH2 0x4C8 SWAP1 PUSH2 0x101B JUMP JUMPDEST DUP1 PUSH1 0x1F ADD PUSH1 0x20 DUP1 SWAP2 DIV MUL PUSH1 0x20 ADD PUSH1 0x40 MLOAD SWAP1 DUP2 ADD PUSH1 0x40 MSTORE DUP1 SWAP3 SWAP2 SWAP1 DUP2 DUP2 MSTORE PUSH1 0x20 ADD DUP3 DUP1 SLOAD PUSH2 0x4F4 SWAP1 PUSH2 0x101B JUMP JUMPDEST DUP1 ISZERO PUSH2 0x541 JUMPI DUP1 PUSH1 0x1F LT PUSH2 0x516 JUMPI PUSH2 0x100 DUP1 DUP4 SLOAD DIV MUL DUP4 MSTORE SWAP2 PUSH1 0x20 ADD SWAP2 PUSH2 0x541 JUMP JUMPDEST DUP3 ADD SWAP2 SWAP1 PUSH1 0x0 MSTORE PUSH1 0x20 PUSH1 0x0 KECCAK256 SWAP1 JUMPDEST DUP2 SLOAD DUP2 MSTORE SWAP1 PUSH1 0x1 ADD SWAP1 PUSH1 0x20 ADD DUP1 DUP4 GT PUSH2 0x524 JUMPI DUP3 SWAP1 SUB PUSH1 0x1F AND DUP3 ADD SWAP2 JUMPDEST POP POP POP POP POP SWAP1 DUP1 PUSH1 0x5 ADD PUSH1 0x0 SWAP1 SLOAD SWAP1 PUSH2 0x100 EXP SWAP1 DIV PUSH1 0xFF AND SWAP1 DUP1 PUSH1 0x6 ADD SLOAD SWAP1 DUP1 PUSH1 0x7 ADD PUSH1 0x0 SWAP1 SLOAD SWAP1 PUSH2 0x100 EXP SWAP1 DIV PUSH1 0xFF AND SWAP1 POP DUP9 JUMP JUMPDEST PUSH1 0x1 PUSH1 0x0 DUP2 SLOAD DUP1 SWAP3 SWAP2 SWAP1 PUSH2 0x58A SWAP1 PUSH2 0x107B JUMP JUMPDEST SWAP2 SWAP1 POP SSTORE POP PUSH1 0x40 MLOAD DUP1 PUSH2 0x100 ADD PUSH1 0x40 MSTORE DUP1 PUSH1 0x1 SLOAD DUP2 MSTORE PUSH1 0x20 ADD DUP4 DUP2 MSTORE PUSH1 0x20 ADD CALLVALUE DUP2 MSTORE PUSH1 0x20 ADD DUP3 PUSH20 0xFFFFFFFFFFFFFFFFFFFFFFFFFFFFFFFFFFFFFFFF AND DUP2 MSTORE PUSH1 0x20 ADD PUSH1 0x40 MLOAD DUP1 PUSH1 0x20 ADD PUSH1 0x40 MSTORE DUP1 PUSH1 0x0 DUP2 MSTORE POP DUP2 MSTORE PUSH1 0x20 ADD PUSH1 0x0 ISZERO ISZERO DUP2 MSTORE PUSH1 0x20 ADD PUSH1 0x0 DUP2 MSTORE PUSH1 0x20 ADD PUSH1 0x0 ISZERO ISZERO DUP2 MSTORE POP PUSH1 0x0 DUP1 PUSH1 0x1 SLOAD DUP2 MSTORE PUSH1 0x20 ADD SWAP1 DUP2 MSTORE PUSH1 0x20 ADD PUSH1 0x0 KECCAK256 PUSH1 0x0 DUP3 ADD MLOAD DUP2 PUSH1 0x0 ADD SSTORE PUSH1 0x20 DUP3 ADD MLOAD DUP2 PUSH1 0x1 ADD SWAP1 DUP2 PUSH2 0x62A SWAP2 SWAP1 PUSH2 0x126F JUMP JUMPDEST POP PUSH1 0x40 DUP3 ADD MLOAD DUP2 PUSH1 0x2 ADD SSTORE PUSH1 0x60 DUP3 ADD MLOAD DUP2 PUSH1 0x3 ADD PUSH1 0x0 PUSH2 0x100 EXP DUP2 SLOAD DUP2 PUSH20 0xFFFFFFFFFFFFFFFFFFFFFFFFFFFFFFFFFFFFFFFF MUL NOT AND SWAP1 DUP4 PUSH20 0xFFFFFFFFFFFFFFFFFFFFFFFFFFFFFFFFFFFFFFFF AND MUL OR SWAP1 SSTORE POP PUSH1 0x80 DUP3 ADD MLOAD DUP2 PUSH1 0x4 ADD SWAP1 DUP2 PUSH2 0x691 SWAP2 SWAP1 PUSH2 0x126F JUMP JUMPDEST POP PUSH1 0xA0 DUP3 ADD MLOAD DUP2 PUSH1 0x5 ADD PUSH1 0x0 PUSH2 0x100 EXP DUP2 SLOAD DUP2 PUSH1 0xFF MUL NOT AND SWAP1 DUP4 ISZERO ISZERO MUL OR SWAP1 SSTORE POP PUSH1 0xC0 DUP3 ADD MLOAD DUP2 PUSH1 0x6 ADD SSTORE PUSH1 0xE0 DUP3 ADD MLOAD DUP2 PUSH1 0x7 ADD PUSH1 0x0 PUSH2 0x100 EXP DUP2 SLOAD DUP2 PUSH1 0xFF MUL NOT AND SWAP1 DUP4 ISZERO ISZERO MUL OR SWAP1 SSTORE POP SWAP1 POP POP PUSH32 0x4FC2983B7139CEAAB88F43E9CE49B23717555D62F17C6EBB621928EA846EF8A6 PUSH1 0x1 SLOAD DUP4 CALLVALUE PUSH1 0x40 MLOAD PUSH2 0x714 SWAP4 SWAP3 SWAP2 SWAP1 PUSH2 0x1341 JUMP JUMPDEST PUSH1 0x40 MLOAD DUP1 SWAP2 SUB SWAP1 LOG1 POP POP JUMP JUMPDEST PUSH1 0x1 SLOAD DUP2 JUMP JUMPDEST PUSH1 0x2 PUSH1 0x0 SWAP1 SLOAD SWAP1 PUSH2 0x100 EXP SWAP1 DIV PUSH20 0xFFFFFFFFFFFFFFFFFFFFFFFFFFFFFFFFFFFFFFFF AND PUSH20 0xFFFFFFFFFFFFFFFFFFFFFFFFFFFFFFFFFFFFFFFF AND CALLER PUSH20 0xFFFFFFFFFFFFFFFFFFFFFFFFFFFFFFFFFFFFFFFF AND EQ PUSH2 0x7B6 JUMPI PUSH1 0x40 MLOAD PUSH32 0x8C379A000000000000000000000000000000000000000000000000000000000 DUP2 MSTORE PUSH1 0x4 ADD PUSH2 0x7AD SWAP1 PUSH2 0x13CB JUMP JUMPDEST PUSH1 0x40 MLOAD DUP1 SWAP2 SUB SWAP1 REVERT JUMPDEST PUSH1 0x0 DUP1 PUSH1 0x0 DUP4 DUP2 MSTORE PUSH1 0x20 ADD SWAP1 DUP2 MSTORE PUSH1 0x20 ADD PUSH1 0x0 KECCAK256 SWAP1 POP PUSH1 0x1 DUP2 PUSH1 0x5 ADD PUSH1 0x0 PUSH2 0x100 EXP DUP2 SLOAD DUP2 PUSH1 0xFF MUL NOT AND SWAP1 DUP4 ISZERO ISZERO MUL OR SWAP1 SSTORE POP PUSH3 0x15180 TIMESTAMP PUSH2 0x7F8 SWAP2 SWAP1 PUSH2 0x13EB JUMP JUMPDEST DUP2 PUSH1 0x6 ADD DUP2 SWAP1 SSTORE POP PUSH32 0x6581A36701680386266C27C579C1F850C542B535D40D8446BEDFE86E29597AB4 DUP3 DUP3 PUSH1 0x6 ADD SLOAD PUSH1 0x40 MLOAD PUSH2 0x835 SWAP3 SWAP2 SWAP1 PUSH2 0xFC3 JUMP JUMPDEST PUSH1 0x40 MLOAD DUP1 SWAP2 SUB SWAP1 LOG1 POP POP JUMP JUMPDEST PUSH1 0x2 PUSH1 0x0 SWAP1 SLOAD SWAP1 PUSH2 0x100 EXP SWAP1 DIV PUSH20 0xFFFFFFFFFFFFFFFFFFFFFFFFFFFFFFFFFFFFFFFF AND DUP2 JUMP JUMPDEST PUSH1 0x0 DUP1 PUSH1 0x0 DUP5 DUP2 MSTORE PUSH1 0x20 ADD SWAP1 DUP2 MSTORE PUSH1 0x20 ADD PUSH1 0x0 KECCAK256 SWAP1 POP DUP1 PUSH1 0x3 ADD PUSH1 0x0 SWAP1 SLOAD SWAP1 PUSH2 0x100 EXP SWAP1 DIV PUSH20 0xFFFFFFFFFFFFFFFFFFFFFFFFFFFFFFFFFFFFFFFF AND PUSH20 0xFFFFFFFFFFFFFFFFFFFFFFFFFFFFFFFFFFFFFFFF AND CALLER PUSH20 0xFFFFFFFFFFFFFFFFFFFFFFFFFFFFFFFFFFFFFFFF AND EQ PUSH2 0x90F JUMPI PUSH1 0x40 MLOAD PUSH32 0x8C379A000000000000000000000000000000000000000000000000000000000 DUP2 MSTORE PUSH1 0x4 ADD PUSH2 0x906 SWAP1 PUSH2 0x1491 JUMP JUMPDEST PUSH1 0x40 MLOAD DUP1 SWAP2 SUB SWAP1 REVERT JUMPDEST DUP2 DUP2 PUSH1 0x4 ADD SWAP1 DUP2 PUSH2 0x920 SWAP2 SWAP1 PUSH2 0x126F JUMP JUMPDEST POP PUSH32 0xE8FB48CF9C969F4B8933C271DF021EE973DDC3F9C7B691BDC3DD074081B339B2 DUP4 DUP4 PUSH1 0x40 MLOAD PUSH2 0x952 SWAP3 SWAP2 SWAP1 PUSH2 0x14B1 JUMP JUMPDEST PUSH1 0x40 MLOAD DUP1 SWAP2 SUB SWAP1 LOG1 POP POP POP JUMP JUMPDEST PUSH1 0x0 PUSH1 0x40 MLOAD SWAP1 POP SWAP1 JUMP JUMPDEST PUSH1 0x0 DUP1 REVERT JUMPDEST PUSH1 0x0 DUP1 REVERT JUMPDEST PUSH1 0x0 DUP2 SWAP1 POP SWAP2 SWAP1 POP JUMP JUMPDEST PUSH2 0x986 DUP2 PUSH2 0x973 JUMP JUMPDEST DUP2 EQ PUSH2 0x991 JUMPI PUSH1 0x0 DUP1 REVERT JUMPDEST POP JUMP JUMPDEST PUSH1 0x0 DUP2 CALLDATALOAD SWAP1 POP PUSH2 0x9A3 DUP2 PUSH2 0x97D JUMP JUMPDEST SWAP3 SWAP2 POP POP JUMP JUMPDEST PUSH1 0x0 PUSH1 0x20 DUP3 DUP5 SUB SLT ISZERO PUSH2 0x9BF JUMPI PUSH2 0x9BE PUSH2 0x969 JUMP JUMPDEST JUMPDEST PUSH1 0x0 PUSH2 0x9CD DUP5 DUP3 DUP6 ADD PUSH2 0x994 JUMP JUMPDEST SWAP2 POP POP SWAP3 SWAP2 POP POP JUMP JUMPDEST PUSH2 0x9DF DUP2 PUSH2 0x973 JUMP JUMPDEST DUP3 MSTORE POP POP JUMP JUMPDEST PUSH1 0x0 DUP2 MLOAD SWAP1 POP SWAP2 SWAP1 POP JUMP JUMPDEST PUSH1 0x0 DUP3 DUP3 MSTORE PUSH1 0x20 DUP3 ADD SWAP1 POP SWAP3 SWAP2 POP POP JUMP JUMPDEST PUSH1 0x0 JUMPDEST DUP4 DUP2 LT ISZERO PUSH2 0xA1F JUMPI DUP1 DUP3 ADD MLOAD DUP2 DUP5 ADD MSTORE PUSH1 0x20 DUP2 ADD SWAP1 POP PUSH2 0xA04 JUMP JUMPDEST PUSH1 0x0 DUP5 DUP5 ADD MSTORE POP POP POP POP JUMP JUMPDEST PUSH1 0x0 PUSH1 0x1F NOT PUSH1 0x1F DUP4 ADD AND SWAP1 POP SWAP2 SWAP1 POP JUMP JUMPDEST PUSH1 0x0 PUSH2 0xA47 DUP3 PUSH2 0x9E5 JUMP JUMPDEST PUSH2 0xA51 DUP2 DUP6 PUSH2 0x9F0 JUMP JUMPDEST SWAP4 POP PUSH2 0xA61 DUP2 DUP6 PUSH1 0x20 DUP7 ADD PUSH2 0xA01 JUMP JUMPDEST PUSH2 0xA6A DUP2 PUSH2 0xA2B JUMP JUMPDEST DUP5 ADD SWAP2 POP POP SWAP3 SWAP2 POP POP JUMP JUMPDEST PUSH1 0x0 PUSH20 0xFFFFFFFFFFFFFFFFFFFFFFFFFFFFFFFFFFFFFFFF DUP3 AND SWAP1 POP SWAP2 SWAP1 POP JUMP JUMPDEST PUSH1 0x0 PUSH2 0xAA0 DUP3 PUSH2 0xA75 JUMP JUMPDEST SWAP1 POP SWAP2 SWAP1 POP JUMP JUMPDEST PUSH2 0xAB0 DUP2 PUSH2 0xA95 JUMP JUMPDEST DUP3 MSTORE POP POP JUMP JUMPDEST PUSH1 0x0 DUP2 ISZERO ISZERO SWAP1 POP SWAP2 SWAP1 POP JUMP JUMPDEST PUSH2 0xACB DUP2 PUSH2 0xAB6 JUMP JUMPDEST DUP3 MSTORE POP POP JUMP JUMPDEST PUSH1 0x0 PUSH2 0x100 DUP3 ADD SWAP1 POP PUSH2 0xAE7 PUSH1 0x0 DUP4 ADD DUP12 PUSH2 0x9D6 JUMP JUMPDEST DUP2 DUP2 SUB PUSH1 0x20 DUP4 ADD MSTORE PUSH2 0xAF9 DUP2 DUP11 PUSH2 0xA3C JUMP JUMPDEST SWAP1 POP PUSH2 0xB08 PUSH1 0x40 DUP4 ADD DUP10 PUSH2 0x9D6 JUMP JUMPDEST PUSH2 0xB15 PUSH1 0x60 DUP4 ADD DUP9 PUSH2 0xAA7 JUMP JUMPDEST DUP2 DUP2 SUB PUSH1 0x80 DUP4 ADD MSTORE PUSH2 0xB27 DUP2 DUP8 PUSH2 0xA3C JUMP JUMPDEST SWAP1 POP PUSH2 0xB36 PUSH1 0xA0 DUP4 ADD DUP7 PUSH2 0xAC2 JUMP JUMPDEST PUSH2 0xB43 PUSH1 0xC0 DUP4 ADD DUP6 PUSH2 0x9D6 JUMP JUMPDEST PUSH2 0xB50 PUSH1 0xE0 DUP4 ADD DUP5 PUSH2 0xAC2 JUMP JUMPDEST SWAP10 SWAP9 POP POP POP POP POP POP POP POP POP JUMP JUMPDEST PUSH1 0x0 DUP1 REVERT JUMPDEST PUSH1 0x0 DUP1 REVERT JUMPDEST PUSH32 0x4E487B7100000000000000000000000000000000000000000000000000000000 PUSH1 0x0 MSTORE PUSH1 0x41 PUSH1 0x4 MSTORE PUSH1 0x24 PUSH1 0x0 REVERT JUMPDEST PUSH2 0xB9F DUP3 PUSH2 0xA2B JUMP JUMPDEST DUP2 ADD DUP2 DUP2 LT PUSH8 0xFFFFFFFFFFFFFFFF DUP3 GT OR ISZERO PUSH2 0xBBE JUMPI PUSH2 0xBBD PUSH2 0xB67 JUMP JUMPDEST JUMPDEST DUP1 PUSH1 0x40 MSTORE POP POP POP JUMP JUMPDEST PUSH1 0x0 PUSH2 0xBD1 PUSH2 0x95F JUMP JUMPDEST SWAP1 POP PUSH2 0xBDD DUP3 DUP3 PUSH2 0xB96 JUMP JUMPDEST SWAP2 SWAP1 POP JUMP JUMPDEST PUSH1 0x0 PUSH8 0xFFFFFFFFFFFFFFFF DUP3 GT ISZERO PUSH2 0xBFD JUMPI PUSH2 0xBFC PUSH2 0xB67 JUMP JUMPDEST JUMPDEST PUSH2 0xC06 DUP3 PUSH2 0xA2B JUMP JUMPDEST SWAP1 POP PUSH1 0x20 DUP2 ADD SWAP1 POP SWAP2 SWAP1 POP JUMP JUMPDEST DUP3 DUP2 DUP4 CALLDATACOPY PUSH1 0x0 DUP4 DUP4 ADD MSTORE POP POP POP JUMP JUMPDEST PUSH1 0x0 PUSH2 0xC35 PUSH2 0xC30 DUP5 PUSH2 0xBE2 JUMP JUMPDEST PUSH2 0xBC7 JUMP JUMPDEST SWAP1 POP DUP3 DUP2 MSTORE PUSH1 0x20 DUP2 ADD DUP5 DUP5 DUP5 ADD GT ISZERO PUSH2 0xC51 JUMPI PUSH2 0xC50 PUSH2 0xB62 JUMP JUMPDEST JUMPDEST PUSH2 0xC5C DUP5 DUP3 DUP6 PUSH2 0xC13 JUMP JUMPDEST POP SWAP4 SWAP3 POP POP POP JUMP JUMPDEST PUSH1 0x0 DUP3 PUSH1 0x1F DUP4 ADD SLT PUSH2 0xC79 JUMPI PUSH2 0xC78 PUSH2 0xB5D JUMP JUMPDEST JUMPDEST DUP2 CALLDATALOAD PUSH2 0xC89 DUP5 DUP3 PUSH1 0x20 DUP7 ADD PUSH2 0xC22 JUMP JUMPDEST SWAP2 POP POP SWAP3 SWAP2 POP POP JUMP JUMPDEST PUSH2 0xC9B DUP2 PUSH2 0xA95 JUMP JUMPDEST DUP2 EQ PUSH2 0xCA6 JUMPI PUSH1 0x0 DUP1 REVERT JUMPDEST POP JUMP JUMPDEST PUSH1 0x0 DUP2 CALLDATALOAD SWAP1 POP PUSH2 0xCB8 DUP2 PUSH2 0xC92 JUMP JUMPDEST SWAP3 SWAP2 POP POP JUMP JUMPDEST PUSH1 0x0 DUP1 PUSH1 0x40 DUP4 DUP6 SUB SLT ISZERO PUSH2 0xCD5 JUMPI PUSH2 0xCD4 PUSH2 0x969 JUMP JUMPDEST JUMPDEST PUSH1 0x0 DUP4 ADD CALLDATALOAD PUSH8 0xFFFFFFFFFFFFFFFF DUP2 GT ISZERO PUSH2 0xCF3 JUMPI PUSH2 0xCF2 PUSH2 0x96E JUMP JUMPDEST JUMPDEST PUSH2 0xCFF DUP6 DUP3 DUP7 ADD PUSH2 0xC64 JUMP JUMPDEST SWAP3 POP POP PUSH1 0x20 PUSH2 0xD10 DUP6 DUP3 DUP7 ADD PUSH2 0xCA9 JUMP JUMPDEST SWAP2 POP POP SWAP3 POP SWAP3 SWAP1 POP JUMP JUMPDEST PUSH1 0x0 PUSH1 0x20 DUP3 ADD SWAP1 POP PUSH2 0xD2F PUSH1 0x0 DUP4 ADD DUP5 PUSH2 0x9D6 JUMP JUMPDEST SWAP3 SWAP2 POP POP JUMP JUMPDEST PUSH1 0x0 PUSH2 0xD40 DUP3 PUSH2 0xA75 JUMP JUMPDEST SWAP1 POP SWAP2 SWAP1 POP JUMP JUMPDEST PUSH2 0xD50 DUP2 PUSH2 0xD35 JUMP JUMPDEST DUP3 MSTORE POP POP JUMP JUMPDEST PUSH1 0x0 PUSH1 0x20 DUP3 ADD SWAP1 POP PUSH2 0xD6B PUSH1 0x0 DUP4 ADD DUP5 PUSH2 0xD47 JUMP JUMPDEST SWAP3 SWAP2 POP POP JUMP JUMPDEST PUSH1 0x0 DUP1 PUSH1 0x40 DUP4 DUP6 SUB SLT ISZERO PUSH2 0xD88 JUMPI PUSH2 0xD87 PUSH2 0x969 JUMP JUMPDEST JUMPDEST PUSH1 0x0 PUSH2 0xD96 DUP6 DUP3 DUP7 ADD PUSH2 0x994 JUMP JUMPDEST SWAP3 POP POP PUSH1 0x20 DUP4 ADD CALLDATALOAD PUSH8 0xFFFFFFFFFFFFFFFF DUP2 GT ISZERO PUSH2 0xDB7 JUMPI PUSH2 0xDB6 PUSH2 0x96E JUMP JUMPDEST JUMPDEST PUSH2 0xDC3 DUP6 DUP3 DUP7 ADD PUSH2 0xC64 JUMP JUMPDEST SWAP2 POP POP SWAP3 POP SWAP3 SWAP1 POP JUMP JUMPDEST PUSH32 0x4974656D206E6F74207665726966696564207965740000000000000000000000 PUSH1 0x0 DUP3 ADD MSTORE POP JUMP JUMPDEST PUSH1 0x0 PUSH2 0xE03 PUSH1 0x15 DUP4 PUSH2 0x9F0 JUMP JUMPDEST SWAP2 POP PUSH2 0xE0E DUP3 PUSH2 0xDCD JUMP JUMPDEST PUSH1 0x20 DUP3 ADD SWAP1 POP SWAP2 SWAP1 POP JUMP JUMPDEST PUSH1 0x0 PUSH1 0x20 DUP3 ADD SWAP1 POP DUP2 DUP2 SUB PUSH1 0x0 DUP4 ADD MSTORE PUSH2 0xE32 DUP2 PUSH2 0xDF6 JUMP JUMPDEST SWAP1 POP SWAP2 SWAP1 POP JUMP JUMPDEST PUSH32 0x4469737075746520706572696F64206E6F74206F766572000000000000000000 PUSH1 0x0 DUP3 ADD MSTORE POP JUMP JUMPDEST PUSH1 0x0 PUSH2 0xE6F PUSH1 0x17 DUP4 PUSH2 0x9F0 JUMP JUMPDEST SWAP2 POP PUSH2 0xE7A DUP3 PUSH2 0xE39 JUMP JUMPDEST PUSH1 0x20 DUP3 ADD SWAP1 POP SWAP2 SWAP1 POP JUMP JUMPDEST PUSH1 0x0 PUSH1 0x20 DUP3 ADD SWAP1 POP DUP2 DUP2 SUB PUSH1 0x0 DUP4 ADD MSTORE PUSH2 0xE9E DUP2 PUSH2 0xE62 JUMP JUMPDEST SWAP1 POP SWAP2 SWAP1 POP JUMP JUMPDEST PUSH32 0x416C726561647920706169640000000000000000000000000000000000000000 PUSH1 0x0 DUP3 ADD MSTORE POP JUMP JUMPDEST PUSH1 0x0 PUSH2 0xEDB PUSH1 0xC DUP4 PUSH2 0x9F0 JUMP JUMPDEST SWAP2 POP PUSH2 0xEE6 DUP3 PUSH2 0xEA5 JUMP JUMPDEST PUSH1 0x20 DUP3 ADD SWAP1 POP SWAP2 SWAP1 POP JUMP JUMPDEST PUSH1 0x0 PUSH1 0x20 DUP3 ADD SWAP1 POP DUP2 DUP2 SUB PUSH1 0x0 DUP4 ADD MSTORE PUSH2 0xF0A DUP2 PUSH2 0xECE JUMP JUMPDEST SWAP1 POP SWAP2 SWAP1 POP JUMP JUMPDEST PUSH1 0x0 DUP2 SWAP1 POP SWAP3 SWAP2 POP POP JUMP JUMPDEST POP JUMP JUMPDEST PUSH1 0x0 PUSH2 0xF2C PUSH1 0x0 DUP4 PUSH2 0xF11 JUMP JUMPDEST SWAP2 POP PUSH2 0xF37 DUP3 PUSH2 0xF1C JUMP JUMPDEST PUSH1 0x0 DUP3 ADD SWAP1 POP SWAP2 SWAP1 POP JUMP JUMPDEST PUSH1 0x0 PUSH2 0xF4D DUP3 PUSH2 0xF1F JUMP JUMPDEST SWAP2 POP DUP2 SWAP1 POP SWAP2 SWAP1 POP JUMP JUMPDEST PUSH32 0x5472616E73666572206661696C65640000000000000000000000000000000000 PUSH1 0x0 DUP3 ADD MSTORE POP JUMP JUMPDEST PUSH1 0x0 PUSH2 0xF8D PUSH1 0xF DUP4 PUSH2 0x9F0 JUMP JUMPDEST SWAP2 POP PUSH2 0xF98 DUP3 PUSH2 0xF57 JUMP JUMPDEST PUSH1 0x20 DUP3 ADD SWAP1 POP SWAP2 SWAP1 POP JUMP JUMPDEST PUSH1 0x0 PUSH1 0x20 DUP3 ADD SWAP1 POP DUP2 DUP2 SUB PUSH1 0x0 DUP4 ADD MSTORE PUSH2 0xFBC DUP2 PUSH2 0xF80 JUMP JUMPDEST SWAP1 POP SWAP2 SWAP1 POP JUMP JUMPDEST PUSH1 0x0 PUSH1 0x40 DUP3 ADD SWAP1 POP PUSH2 0xFD8 PUSH1 0x0 DUP4 ADD DUP6 PUSH2 0x9D6 JUMP JUMPDEST PUSH2 0xFE5 PUSH1 0x20 DUP4 ADD DUP5 PUSH2 0x9D6 JUMP JUMPDEST SWAP4 SWAP3 POP POP POP JUMP JUMPDEST PUSH32 0x4E487B7100000000000000000000000000000000000000000000000000000000 PUSH1 0x0 MSTORE PUSH1 0x22 PUSH1 0x4 MSTORE PUSH1 0x24 PUSH1 0x0 REVERT JUMPDEST PUSH1 0x0 PUSH1 0x2 DUP3 DIV SWAP1 POP PUSH1 0x1 DUP3 AND DUP1 PUSH2 0x1033 JUMPI PUSH1 0x7F DUP3 AND SWAP2 POP JUMPDEST PUSH1 0x20 DUP3 LT DUP2 SUB PUSH2 0x1046 JUMPI PUSH2 0x1045 PUSH2 0xFEC JUMP JUMPDEST JUMPDEST POP SWAP2 SWAP1 POP JUMP JUMPDEST PUSH32 0x4E487B7100000000000000000000000000000000000000000000000000000000 PUSH1 0x0 MSTORE PUSH1 0x11 PUSH1 0x4 MSTORE PUSH1 0x24 PUSH1 0x0 REVERT JUMPDEST PUSH1 0x0 PUSH2 0x1086 DUP3 PUSH2 0x973 JUMP JUMPDEST SWAP2 POP PUSH32 0xFFFFFFFFFFFFFFFFFFFFFFFFFFFFFFFFFFFFFFFFFFFFFFFFFFFFFFFFFFFFFFFF DUP3 SUB PUSH2 0x10B8 JUMPI PUSH2 0x10B7 PUSH2 0x104C JUMP JUMPDEST JUMPDEST PUSH1 0x1 DUP3 ADD SWAP1 POP SWAP2 SWAP1 POP JUMP JUMPDEST PUSH1 0x0 DUP2 SWAP1 POP DUP2 PUSH1 0x0 MSTORE PUSH1 0x20 PUSH1 0x0 KECCAK256 SWAP1 POP SWAP2 SWAP1 POP JUMP JUMPDEST PUSH1 0x0 PUSH1 0x20 PUSH1 0x1F DUP4 ADD DIV SWAP1 POP SWAP2 SWAP1 POP JUMP JUMPDEST PUSH1 0x0 DUP3 DUP3 SHL SWAP1 POP SWAP3 SWAP2 POP POP JUMP JUMPDEST PUSH1 0x0 PUSH1 0x8 DUP4 MUL PUSH2 0x1125 PUSH32 0xFFFFFFFFFFFFFFFFFFFFFFFFFFFFFFFFFFFFFFFFFFFFFFFFFFFFFFFFFFFFFFFF DUP3 PUSH2 0x10E8 JUMP JUMPDEST PUSH2 0x112F DUP7 DUP4 PUSH2 0x10E8 JUMP JUMPDEST SWAP6 POP DUP1 NOT DUP5 AND SWAP4 POP DUP1 DUP7 AND DUP5 OR SWAP3 POP POP POP SWAP4 SWAP3 POP POP POP JUMP JUMPDEST PUSH1 0x0 DUP2 SWAP1 POP SWAP2 SWAP1 POP JUMP JUMPDEST PUSH1 0x0 PUSH2 0x116C PUSH2 0x1167 PUSH2 0x1162 DUP5 PUSH2 0x973 JUMP JUMPDEST PUSH2 0x1147 JUMP JUMPDEST PUSH2 0x973 JUMP JUMPDEST SWAP1 POP SWAP2 SWAP1 POP JUMP JUMPDEST PUSH1 0x0 DUP2 SWAP1 POP SWAP2 SWAP1 POP JUMP JUMPDEST PUSH2 0x1186 DUP4 PUSH2 0x1151 JUMP JUMPDEST PUSH2 0x119A PUSH2 0x1192 DUP3 PUSH2 0x1173 JUMP JUMPDEST DUP5 DUP5 SLOAD PUSH2 0x10F5 JUMP JUMPDEST DUP3 SSTORE POP POP POP POP JUMP JUMPDEST PUSH1 0x0 SWAP1 JUMP JUMPDEST PUSH2 0x11AF PUSH2 0x11A2 JUMP JUMPDEST PUSH2 0x11BA DUP2 DUP5 DUP5 PUSH2 0x117D JUMP JUMPDEST POP POP POP JUMP JUMPDEST JUMPDEST DUP2 DUP2 LT ISZERO PUSH2 0x11DE JUMPI PUSH2 0x11D3 PUSH1 0x0 DUP3 PUSH2 0x11A7 JUMP JUMPDEST PUSH1 0x1 DUP2 ADD SWAP1 POP PUSH2 0x11C0 JUMP JUMPDEST POP POP JUMP JUMPDEST PUSH1 0x1F DUP3 GT ISZERO PUSH2 0x1223 JUMPI PUSH2 0x11F4 DUP2 PUSH2 0x10C3 JUMP JUMPDEST PUSH2 0x11FD DUP5 PUSH2 0x10D8 JUMP JUMPDEST DUP2 ADD PUSH1 0x20 DUP6 LT ISZERO PUSH2 0x120C JUMPI DUP2 SWAP1 POP JUMPDEST PUSH2 0x1220 PUSH2 0x1218 DUP6 PUSH2 0x10D8 JUMP JUMPDEST DUP4 ADD DUP3 PUSH2 0x11BF JUMP JUMPDEST POP POP JUMPDEST POP POP POP JUMP JUMPDEST PUSH1 0x0 DUP3 DUP3 SHR SWAP1 POP SWAP3 SWAP2 POP POP JUMP JUMPDEST PUSH1 0x0 PUSH2 0x1246 PUSH1 0x0 NOT DUP5 PUSH1 0x8 MUL PUSH2 0x1228 JUMP JUMPDEST NOT DUP1 DUP4 AND SWAP2 POP POP SWAP3 SWAP2 POP POP JUMP JUMPDEST PUSH1 0x0 PUSH2 0x125F DUP4 DUP4 PUSH2 0x1235 JUMP JUMPDEST SWAP2 POP DUP3 PUSH1 0x2 MUL DUP3 OR SWAP1 POP SWAP3 SWAP2 POP POP JUMP JUMPDEST PUSH2 0x1278 DUP3 PUSH2 0x9E5 JUMP JUMPDEST PUSH8 0xFFFFFFFFFFFFFFFF DUP2 GT ISZERO PUSH2 0x1291 JUMPI PUSH2 0x1290 PUSH2 0xB67 JUMP JUMPDEST JUMPDEST PUSH2 0x129B DUP3 SLOAD PUSH2 0x101B JUMP JUMPDEST PUSH2 0x12A6 DUP3 DUP3 DUP6 PUSH2 0x11E2 JUMP JUMPDEST PUSH1 0x0 PUSH1 0x20 SWAP1 POP PUSH1 0x1F DUP4 GT PUSH1 0x1 DUP2 EQ PUSH2 0x12D9 JUMPI PUSH1 0x0 DUP5 ISZERO PUSH2 0x12C7 JUMPI DUP3 DUP8 ADD MLOAD SWAP1 POP JUMPDEST PUSH2 0x12D1 DUP6 DUP3 PUSH2 0x1253 JUMP JUMPDEST DUP7 SSTORE POP PUSH2 0x1339 JUMP JUMPDEST PUSH1 0x1F NOT DUP5 AND PUSH2 0x12E7 DUP7 PUSH2 0x10C3 JUMP JUMPDEST PUSH1 0x0 JUMPDEST DUP3 DUP2 LT ISZERO PUSH2 0x130F JUMPI DUP5 DUP10 ADD MLOAD DUP3 SSTORE PUSH1 0x1 DUP3 ADD SWAP2 POP PUSH1 0x20 DUP6 ADD SWAP5 POP PUSH1 0x20 DUP2 ADD SWAP1 POP PUSH2 0x12EA JUMP JUMPDEST DUP7 DUP4 LT ISZERO PUSH2 0x132C JUMPI DUP5 DUP10 ADD MLOAD PUSH2 0x1328 PUSH1 0x1F DUP10 AND DUP3 PUSH2 0x1235 JUMP JUMPDEST DUP4 SSTORE POP JUMPDEST PUSH1 0x1 PUSH1 0x2 DUP9 MUL ADD DUP9 SSTORE POP POP POP JUMPDEST POP POP POP POP POP POP JUMP JUMPDEST PUSH1 0x0 PUSH1 0x60 DUP3 ADD SWAP1 POP PUSH2 0x1356 PUSH1 0x0 DUP4 ADD DUP7 PUSH2 0x9D6 JUMP JUMPDEST DUP2 DUP2 SUB PUSH1 0x20 DUP4 ADD MSTORE PUSH2 0x1368 DUP2 DUP6 PUSH2 0xA3C JUMP JUMPDEST SWAP1 POP PUSH2 0x1377 PUSH1 0x40 DUP4 ADD DUP5 PUSH2 0x9D6 JUMP JUMPDEST SWAP5 SWAP4 POP POP POP POP JUMP JUMPDEST PUSH32 0x4F6E6C792074686520496E73706563746F722063616E20766572696679000000 PUSH1 0x0 DUP3 ADD MSTORE POP JUMP JUMPDEST PUSH1 0x0 PUSH2 0x13B5 PUSH1 0x1D DUP4 PUSH2 0x9F0 JUMP JUMPDEST SWAP2 POP PUSH2 0x13C0 DUP3 PUSH2 0x137F JUMP JUMPDEST PUSH1 0x20 DUP3 ADD SWAP1 POP SWAP2 SWAP1 POP JUMP JUMPDEST PUSH1 0x0 PUSH1 0x20 DUP3 ADD SWAP1 POP DUP2 DUP2 SUB PUSH1 0x0 DUP4 ADD MSTORE PUSH2 0x13E4 DUP2 PUSH2 0x13A8 JUMP JUMPDEST SWAP1 POP SWAP2 SWAP1 POP JUMP JUMPDEST PUSH1 0x0 PUSH2 0x13F6 DUP3 PUSH2 0x973 JUMP JUMPDEST SWAP2 POP PUSH2 0x1401 DUP4 PUSH2 0x973 JUMP JUMPDEST SWAP3 POP DUP3 DUP3 ADD SWAP1 POP DUP1 DUP3 GT ISZERO PUSH2 0x1419 JUMPI PUSH2 0x1418 PUSH2 0x104C JUMP JUMPDEST JUMPDEST SWAP3 SWAP2 POP POP JUMP JUMPDEST PUSH32 0x4F6E6C792074686520726563697069656E742063616E2075706C6F6164207072 PUSH1 0x0 DUP3 ADD MSTORE PUSH32 0x6F6F660000000000000000000000000000000000000000000000000000000000 PUSH1 0x20 DUP3 ADD MSTORE POP JUMP JUMPDEST PUSH1 0x0 PUSH2 0x147B PUSH1 0x23 DUP4 PUSH2 0x9F0 JUMP JUMPDEST SWAP2 POP PUSH2 0x1486 DUP3 PUSH2 0x141F JUMP JUMPDEST PUSH1 0x40 DUP3 ADD SWAP1 POP SWAP2 SWAP1 POP JUMP JUMPDEST PUSH1 0x0 PUSH1 0x20 DUP3 ADD SWAP1 POP DUP2 DUP2 SUB PUSH1 0x0 DUP4 ADD MSTORE PUSH2 0x14AA DUP2 PUSH2 0x146E JUMP JUMPDEST SWAP1 POP SWAP2 SWAP1 POP JUMP JUMPDEST PUSH1 0x0 PUSH1 0x40 DUP3 ADD SWAP1 POP PUSH2 0x14C6 PUSH1 0x0 DUP4 ADD DUP6 PUSH2 0x9D6 JUMP JUMPDEST DUP2 DUP2 SUB PUSH1 0x20 DUP4 ADD MSTORE PUSH2 0x14D8 DUP2 DUP5 PUSH2 0xA3C JUMP JUMPDEST SWAP1 POP SWAP4 SWAP3 POP POP POP JUMP INVALID LOG2 PUSH5 0x6970667358 0x22 SLT KECCAK256 DELEGATECALL NOT SGT SELFDESTRUCT 0xAB DUP1 0x2F 0xBD SWAP3 SDIV 0xC7 0xAA SWAP8 0xC4 0xCC 0xBA 0xCA SELFDESTRUCT RETURN SWAP16 GT PUSH1 0x28 0x2C MLOAD 0xE2 CODESIZE 0xA5 0x21 SWAP12 LOG4 DUP16 PUSH5 0x736F6C6343 STOP ADDMOD SHR STOP CALLER "
        },
        "methodIdentifiers": {
          "budgetItems(uint256)": "59458490",
          "claimFunds(uint256)": "1b55e338",
          "createBudgetItem(string,address)": "5d3efb62",
          "inspector()": "ed2cee9e",
          "itemCount()": "6bfb0d01",
          "uploadProof(uint256,string)": "fc0990fe",
          "verifyProof(uint256)": "8b6958ff"
        }
      }
    }
  }
}